:1000000044C06EC15DC05CC05BC05AC059C058C01E
:1000100057C056C055C054C053C052C051C050C044
:100020004FC04EC04DC009021200010100400A0934
:10003000040000000000000012010101FF000008A0
:10004000C016DC0500010102000114035500530035
:1000500042002D0053006500720076006F002803F7
:100060007700770077002E0073006300680061005E
:10007000740065006E00730065006900740065001F
:100080002E00640065000403090411241FBECFE59F
:10009000D4E0DEBFCDBF10E0A0E6B0E0ECEEF6E0CD
:1000A00002C005900D92A236B107D9F720E0A2E672
:1000B000B0E001C01D92A839B207E1F7D6D214C34F
:1000C0009FCFCF93DF9380919400882309F496C04B
:1000D000835087FD91C0C2E6D0E090918E00C1E0D0
:1000E000C90F909191009D3209F080C0883009F0CD
:1000F0007DC08881807609F069C010928C0089816A
:10010000811111C088818F7119F481E080938C0076
:1001100010928D008CE890E0909393008093920071
:1001200090E882E05BC0853021F48A81809395005D
:1001300053C08630A9F58B81813019F488E390E0B3
:1001400004C0823049F486E290E09093930080935B
:10015000920090EC82E142C08330E1F58A81811106
:1001600009C086E890E0909393008093920090EC11
:1001700084E034C0813049F48EE590E090939300A0
:100180008093920090EC88E229C0823019F58AE4CD
:1001900090E0909393008093920090EC84E11EC0D5
:1001A000883019F487E990E00AC0893021F48A8107
:1001B0008093970011C08A3079F48CE890E0909396
:1001C00093008093920090E881E008C0CE0127D28E
:1001D00090E804C090EC01C090E880E02F812111EC
:1001E00007C02E81281720F4822F02C090E880E0FB
:1001F0009093790080936100109294008091610047
:100200008F3F09F444C09091600094FF40C0C82F14
:10021000893008F0C8E08C1B809361002091790040
:1002200020FF02C0D3EC01C0DBE42F5F20937900F4
:10023000809192009091930026FD05C0FC01A4E8F6
:10024000B0E02C2F0AC0A4E8B0E0FC012C2F215014
:1002500048F034913D933196FACF215018F0319106
:100260003D93FBCF8C0F911D909393008093920050
:100270006C2F84E890E0CFD184E08C0FC83019F067
:100280009FEF90936100D09383008093600080B3D0
:10029000847119F01092780011C08091780081115A
:1002A0000DC084E690B3947149F48150D9F781E090
:1002B000809378001092950010929000DF91CF917A
:1002C000089582E690E080938F008DE690E0809321
:1002D0008E0085B7836085BF8BB780648BBF089520
:1002E0000F930FB70F9305E0849BFECF0A95849977
:1002F000E9F71F933F932F9331E014E000B31027E9
:1003000014FD32E0102F3A95C9F704FDDFC000B3A9
:10031000102720E014FB20F9DF9310B3012704FB22
:1003200021F9CF93C0918F0000B3102714FB22F95D
:100330003BE0D0E04F9310B3012704FB23F94FEFCC
:10034000000051C005E0849BFECF0A958499E9F72F
:10035000DF9100C0D1CF10B3147179F14F7D2062CD
:1003600013C000B3047149F14F7B206415C00471C0
:1003700021F1102F206800B319C000B30471E9F017
:100380004E7F216018C039F300B30471B1F010271B
:1003900014FB26F9223028F310B3012704FB27F9B8
:1003A000422749934FEF00B3243008F3102714FB82
:1003B00020F9297F11F310B31471E1F1012704FB37
:1003C00021F9237FF1F000B30471A1F1102714FB90
:1003D00022F9277EE1F010B3012704FB23F93A95B7
:1003E00041F12F7CD1F000B3047121F1102714FBEF
:1003F00024F92F79C1F010B3012704FB25F92F73DD
:10040000C2CF10B31471B1F04D7F2260DCCF00B3C6
:10041000047181F04B7F2460DECF10B3147151F072
:10042000477F2860E0CF00B3047121F04F7E206148
:10043000E2CF3BC03C2FC0918F003C1B00E4333027
:100440000ABF98F108811981412F1F7720919000F0
:100450000D3279F1013E69F10936C1F007770334B5
:1004600021F510919600112301F1009194000030C4
:10047000C1F53430C2F13093940010939100009193
:100480008E00C0938E0000938F002DC0121769F468
:100490003091600034FD23C00AE500936000C3E89A
:1004A000D0E025C00027009396004F91CF91DF91B7
:1004B0000DC01217B9F7009396000AE5009360008B
:1004C0004F91CF910AB706FD3DCFDF9100E40ABFFF
:1004D0002F913F911F910F910FBF0F911895432FAF
:1004E00003C04AE501C042EDC4E1D0E032E05F93D1
:1004F00054E1949A02B38C9A8A9A20E80FC0052797
:1005000010E002BB10C0052710E0089402BB13C026
:10051000052710E015C0052710E019C020FF0527AA
:1005200002BB279517951C3F50F720FF05272795FD
:1005300002BB17951C3F38F720FF05272795179515
:1005400002BB1C3F28F720FF0527279517951C3F66
:1005500002BB08F700C0499120FF052702BB279581
:1005600017951C3F80F520FF0527279502BB17959F
:100570001C3F68F520FF05272795179502BB1C3FF8
:1005800058F520FF0527279517951C3F02BB38F526
:10059000242F3A9519F60B7E5F9102BB32E03A9513
:1005A000F1F710919500C651D04011F010939000D2
:1005B000006111B31B7E02BB0B7E4F91CF9111BB2B
:1005C00002BBDF9183CF052710E002BBCACF05270E
:1005D00010E0089402BBCDCF052710E0CFCF052750
:1005E00010E0D3CFA82FB92F8FEF9FEF41E050EA53
:1005F000615070F02D9138E0722F7827969587958D
:10060000269570FF02C0842795273A95A9F7F0CF69
:10061000809590950895E6DF8D939D930895FC0154
:1006200010927A008181813081F038F0823099F423
:1006300082818093820080E011C0828180937A0061
:10064000838180937B0082E009C080918200809347
:100650007A0081E003C081E080937A002AE730E0ED
:10066000309393002093920008958FEF81BB12BACC
:1006700084BB15BA8BEE81BB85E083BF22DE789404
:100680008AE02FEF31EE94E0215030409040E1F7C6
:1006900000C000008150A9F710928200CFEF11DD59
:1006A00008B600FEFCCF88B7816088BFC5BB88E470
:1006B00090E0EFE8F1E03197F1F700C0000001971A
:1006C000C1F720E030E08091820090E028173907E0
:1006D0004CF487E191E00197F1F700C000002F5F33
:0C06E0003F4FF1CF15BADBCFF894FFCFED
:0206EC005AFFB3
:00000001FF
